:0400000005EF06F012
:10080000004D6F76696D69656E746F2073657276E1
:100810006F004D6963726F2073656D616E61203189
:10082000330072656E6469727365206A616D61730D
:1008300000506F736963696F6E2030303000506F05
:10084000736963696F6E20313830000093EC05F0F6
:100850001BEC05F0000E046E010E3FEC05F0010EDE
:10086000056E080E066EF6EC04F0000E046E020E25
:100870003FEC05F0310E056E080E066EF6EC04F046
:10088000DF0E79EC05F0000E0E6E8980E90EE82E81
:10089000FED700F089901A0E0D6E0F0EE82EFED7CF
:1008A0000D2EFCD700F00E2A630E0E645AEF04F0F2
:1008B0005CEF04F045EF04F0000E046E010E3FEC17
:1008C00005F0010E056E080E066EF6EC04F0000E43
:1008D000046E020E3FEC05F03E0E056E080E066E2D
:1008E000F6EC04F0DF0E79EC05F0000E0E6E898058
:1008F000030E0D6EFC0EE82EFED70D2EFCD7899050
:10090000170E0D6EFC0EE82EFED70D2EFCD70E2A0C
:10091000630E0E648EEF04F090EF04F077EF04F0B6
:100920002AEF04F000EF00F0F80E956E8D908D82A6
:100930008D84210EE82EFED700F083CF01F08D9438
:10094000210EE82EFED700F08D84210EE82EFED772
:1009500000F08D940150800B016EC3EF04F08D8484
:10096000210EE82EFED700F083CF01F08D94210EEA
:10097000E82EFED700F08D84210EE82EFED700F081
:100980008D94AAEF04F0800E0118D8B4CAEF04F0D9
:10099000CCEF04F0AFEF04F012008D908D92300E8A
:1009A000F7EC05F0030E046E980EE82EFED7042E29
:1009B000FCD7300EF7EC05F0210EE82EFED700F044
:1009C000300EF7EC05F0200EF7EC05F0010EADEC63
:1009D00005F0280EADEC05F00F0EADEC05F0060E9F
:1009E000ADEC05F0010EADEC05F0120005C001F014
:1009F00006C002F05CEC05F00150096E000E0A6EB4
:100A000011EF05F00A500524076E000E0620086E4F
:100A100007C0F6FF08C0F7FF0800F55079EC05F0B5
:100A20000A2A09500A5CD8A018EF05F01AEF05F061
:100A300002EF05F01200000E046E010E3FEC05F00F
:100A4000120E056E080E066EF6EC04F0000E046E33
:100A5000020E3FEC05F0220E056E080E066EF6EC57
:100A600004F0100E0C6E390E0B6E0E0EE82EFED733
:100A70000B2EFCD70C2EFAD710EC06F01200056EE8
:100A80000504D8A446EF05F048EF05F04EEF05F059
:100A90000450800FADEC05F05BEF05F0020E051879
:100AA000D8A455EF05F057EF05F05BEF05F00450C3
:100AB000C00FADEC05F0120001C003F002C004F05D
:100AC00064EF05F0014A022A01C0F6FF02C0F7FFF9
:100AD0000800F5500009D8A470EF05F072EF05F09A
:100AE00062EF05F00350015C016E04500258026E83
:100AF0001200026E8D8094EC04F0000E956E210EB3
:100B0000E82EFED700F08D928D948D800250F00B70
:100B1000036E0350F7EC05F00238F00B036E035040
:100B2000F7EC05F01200520ED36E92900F015B911C
:100B30009368FC0E5C6FF19E030E856E949C5D9D28
:100B4000948E5D9F0F0E956E0F0E5E6FF80E966E73
:100B5000F80E5F6FC7EC05F01200026E8D9094ECFA
:100B600004F0000E956E210EE82EFED700F08D9257
:100B70008D948D900250F00B036E0350F7EC05F04E
:100B80000238F00B036E0350F7EC05F01200140E60
:100B9000056E7A0EE82EFED7052EFCD7CDEC04F0BC
:100BA000140E056E7A0EE82EFED7052EFCD710EC3B
:100BB00006F00CEC06F0010EDFEC05F01200046EFE
:100BC0000450D8A4E6EF05F0E8EF05F0EBEF05F0F0
:100BD0000E0EADEC05F00404D8A4F1EF05F0F3EF30
:100BE00005F0F6EF05F00C0EADEC05F01200016E0D
:100BF0000F0E8C16F00E011601508C128D84210EF2
:100C0000E82EFED700F08D941200000EF86E080E4C
:100C1000F76E000126EF04F0020EADEC05F01200B5
:080C2000010EADEC05F012001D
:020000040020DA
:08000000FFFFFFFFFFFFFFFF00
:020000040030CA
:0E0000000008583CFFD181FF0FC00FE00F40F9
:00000001FF
