:020000000FD01F
:020008003CD0EA
:020018003ED0D8
:100020000F01520ED36EF00E956E5E6F800E926EC3
:100030005B6FF19E93805C91858093825C93858257
:10004000D08EF28EF28CF288F086F19CF19AF09CC0
:10005000010E8C6E5CEC00F0020E8C6E5CEC00F01D
:10006000040E8C6E5CEC00F0080E8C6E5CEC00F004
:10007000040E8C6E5CEC00F0020E8C6E5CEC00F0FA
:10008000E7D7F292090E006202D0006A01D0002A7E
:1000900056EC00F01000F090000E006203D0090E44
:1000A000006E01D0000656EC00F0100000C0F6FF14
:1000B0000800F5CF89FF1200500E016E64EC00F0CD
:1000C000012E5EEF00F01200320E026E6CEC00F0BA
:1000D000022E66EF00F012000E0E036E0000032EDB
:0600E0006EEF00F01200BB
:0A0100003F065B4F666D7D077F67C9
:020000040030CA
:040000000008583C60
:02000500D181A7
:060008000FC00FE00F40E5
:00000001FF
