:020000000FD01F
:020008003BD0EB
:100020000F01620ED36ED26A5B6B5E6B926AFC0E3E
:10003000956EF86A010EF76E010E036EF28EF2886D
:10004000F66A0900F5CF89FF2CEC00F003A0FED77B
:100050000E0EF662F6D7F4D7640E006E33EC00F0A5
:10006000002EFCD71200320E016E3AEC00F0012E89
:10007000FCD71200320E026E0000022EFDD71200D5
:06008000F2920370100073
:0E010000010204081020408040201008040274
:020000040030CA
:040000000028583C40
:02000500518127
:060008000FC00FE00F40E5
:00000001FF
