:0400000069EF07F0AD
:100800000053656D616E6120313420693263004DA3
:100810006963726F20323032332D31004445433AE0
:070820000042494E3A0000BE
:10082800146E030E046EE80E036E14C001F0026A23
:10083800E6EC04F001C007F002C008F0000E0A6EF2
:10084800640E096E84EC04F00750126E000E046EFC
:10085800640E036E14C001F0026AE6EC04F001C0F5
:1008680007F002C008F0000E0A6E0A0E096E84EC4A
:1008780004F00750136E14C001F0026A000E046EF3
:100888000A0E036EE6EC04F00150156E6AEF04F0F0
:100898001550300F1AEC07F083EF04F01350300FA7
:1008A8001AEC07F01550300F1AEC07F083EF04F03C
:1008B8001250300F1AEC07F01350300F1AEC07F0F3
:1008C8001550300F1AEC07F083EF04F00F50106E3C
:1008D800116A1150000AD8B474EF04F083EF04F0E1
:1008E8001050010AD8B44CEF04F0030AD8B452EF00
:1008F80004F0010AD8B45CEF04F083EF04F01200AE
:10090800000E0C6E0ABE8DEF04F08BEF04F093EF2F
:1009180004F0096C0A1ED8B00A2A010E0C6E08BE33
:100928009AEF04F098EF04F0A0EF04F0076C081EAB
:10093800D8B0082A010E0C1A000E0E6E000E0D6EAD
:1009480009500A10D8B4ABEF04F0ADEF04F0D5EFBE
:1009580004F0010E0B6EB5EF04F0D89009360A3694
:100968000B2A0AAEBAEF04F0BCEF04F0B1EF04F0C2
:10097800D8900D360E360950075C0A500858D8A092
:10098800C8EF04F0CAEF04F0CFEF04F00950075E97
:100998000A50085A0D80D8900A3209320B2EBCEF43
:1009A80004F00C50D8B4DBEF04F0DDEF04F0E1EF15
:1009B80004F00D6C0E1ED8B00E2A0DC007F00EC044
:1009C80008F01200000E066E02BEEFEF04F0EDEF25
:1009D80004F0F5EF04F0016C021ED8B0022A010EF3
:1009E800066E04BEFCEF04F0FAEF04F000EF05F029
:1009F800036C041ED8B0042A03500410D8B407EFBF
:100A080005F009EF05F02DEF05F0010E056E11EF69
:100A180005F0D89003360436052A04AE16EF05F023
:100A280018EF05F00DEF05F00350015C0450025873
:100A3800D8A021EF05F023EF05F027EF05F00350CC
:100A4800015E0450025AD89004320332052E18EF82
:100A580005F00650D8B433EF05F035EF05F039EF5F
:100A680005F0016C021ED8B0022A01C001F002C0D4
:100A780002F01200F80E956E8C908C828C84210EF8
:100A8800E82EFED700F083CF01F08C94210EE82EDB
:100A9800FED700F08C84210EE82EFED700F08C944F
:100AA8000150800B016E6DEF05F08C84210EE82E4D
:100AB800FED700F083CF01F08C94210EE82EFED7EC
:100AC80000F08C84210EE82EFED700F08C9454EFB1
:100AD80005F0800E0118D8B474EF05F076EF05F034
:100AE80059EF05F01200016EC580C5B07EEF05F024
:100AF80080EF05F079EF05F001C0C9FFC7B087EFB7
:100B080005F089EF05F082EF05F0C7B48EEF05F028
:100B180090EF05F089EF05F0C586C7A096EF05F0C0
:100B280098EF05F091EF05F0C58AC588C5B89FEF25
:100B380005F0A1EF05F09AEF05F0C584C5B4A7EF5D
:100B480005F0A9EF05F0A2EF05F0C9501200036EF9
:100B5800C580C5B0B2EF05F0B4EF05F0ADEF05F014
:100B680003C0C9FFC7B0BBEF05F0BDEF05F0B6EF96
:100B780005F0C7B4C2EF05F0C4EF05F0BDEF05F00E
:100B880002C0C9FFC7B0CBEF05F0CDEF05F0C6EF47
:100B980005F0C7B4D2EF05F0D4EF05F0CDEF05F0BE
:100BA800C584C5B4DAEF05F0DCEF05F0D5EF05F044
:100BB800120062EC07F085EC06F0430E77EC05F0C6
:100BC800026E400EABEC05F0000E046E010EA9ECAF
:100BD80006F0210E056E080E066E60EC06F0430E58
:100BE80077EC05F037EC06F0000E046E020EA9EC67
:100BF80006F01C0E056E080E066E60EC06F0030E7D
:100C08000F6E430E77EC05F014EC04F0E1EF05F0FD
:100C180000EF00F08C908C92300E4CEC07F0030E35
:100C2800046E980EE82EFED7042EFCD7300E4CEC3E
:100C380007F0210EE82EFED700F0300E4CEC07F03E
:100C4800200E4CEC07F0010E00EC07F0280E00EC2B
:100C580007F00F0E00EC07F0060E00EC07F0010E8F
:100C680000EC07F01200066E000E076E075007082A
:100C7800046E06C005F0042A44EF06F0D890053249
:100C8800042E42EF06F005A04CEF06F04EEF06F0FA
:100C980053EF06F0310E1AEC07F056EF06F0300E5F
:100CA8001AEC07F0072A070E07645DEF06F05FEFFE
:100CB80006F03AEF06F0120005C001F006C002F097
:100CC800C6EC06F00150096E000E0A6E7BEF06F0C6
:100CD8000A500524076E000E0620086E07C0F6FFAE
:100CE80008C0F7FF0800F5501AEC07F00A2A095067
:100CF8000A5CD8A082EF06F084EF06F06CEF06F0ED
:100D08001200000E046E010EA9EC06F00F0E056E1F
:100D1800080E066E60EC06F0000E046E020EA9ECDA
:100D280006F0010E056E080E066E60EC06F00B0E5E
:100D38000C6E260E0B6E5E0EE82EFED70B2EFCD721
:100D48000C2EFAD772EC07F01200056E0504D8A431
:100D5800B0EF06F0B2EF06F0B8EF06F00450800FDF
:100D680000EC07F0C5EF06F0020E0518D8A4BFEF97
:100D780006F0C1EF06F0C5EF06F00450C00F00EC16
:100D880007F0120001C003F002C004F0CEEF06F035
:100D9800014A022A01C0F6FF02C0F7FF0800F55019
:100DA8000009D8A4DAEF06F0DCEF06F0CCEF06F085
:100DB8000350015C016E04500258026E1200000ECE
:100DC800956E000E0F015E6F140E056E7A0EE82EFA
:100DD800FED7052EFCD70EEC06F0140E056E7A0E23
:100DE800E82EFED7052EFCD772EC07F06EEC07F064
:100DF800010E34EC07F01200026E8C903EEC05F008
:100E0800000E956E210EE82EFED700F08C928C9481
:100E18008C900250F00B036E03504CEC07F0023834
:100E2800F00B036E03504CEC07F01200026E8C803E
:100E38003EEC05F0000E956E210EE82EFED700F070
:100E48008C928C948C800250F00B036E03504CEC07
:100E580007F00238F00B036E03504CEC07F0120059
:100E6800046E0450D8A43BEF07F03DEF07F040EFC5
:100E780007F00E0E00EC07F00404D8A446EF07F0C4
:100E880048EF07F04BEF07F00C0E00EC07F01200EC
:100E9800016E0F0E8C16F00E011601508C128C8408
:100EA800210EE82EFED700F08C941200C68AC65098
:100EB800F00B0809C66E770EC86E1200520ED36E7C
:100EC800E3EC06F05AEC07F01200000EF86E000191
:100ED800DDEF05F0020E00EC07F01200010E00EC49
:040EE80007F01200FD
:020000040020DA
:08000000FFFFFFFFFFFFFFFF00
:020000040030CA
:0E0000000008583CFFD181FF0FC00FE00F40F9
:00000001FF
