:0400000064EF06F0B3
:10080000005072696D657220656A656D706C6F006D
:1008100054656D70204C4D33353A00000DC006F024
:100820000EC007F0030E096EE80E086E97EC04F098
:100830000650146E030E046EE80E036E0DC001F038
:100840000EC002F00AEC05F001C006F002C007F08D
:10085000000E096E640E086E97EC04F00650136EDD
:10086000000E046E640E036E0DC001F00EC002F0A7
:100870000AEC05F001C006F002C007F0000E096E98
:100880000A0E086E97EC04F00650126E0DC001F0CF
:100890000EC002F0000E046E0A0E036E0AEC05F0A4
:1008A0000150116E1200C4EC05F0000E046E010E32
:1008B0008AEC05F0010E056E080E066E65EC05F07B
:1008C00044EC06F00FC006F010C007F0000E096EF1
:1008D0000A0E086E97EC04F006C00FF007C010F087
:1008E0000FC00DF010C00EF00EEC04F0000E046E00
:1008F000020E8AEC05F0100E056E080E066E65EC11
:1009000005F01350300FFAEC05F01250300FFAECEE
:1009100005F01150300FFAEC05F0DF0EFAEC05F09F
:10092000430EFAEC05F060EF04F000EF00F0000E6B
:100930000B6E000E0A6E08500910D8B4A2EF04F036
:10094000A4EF04F0CCEF04F0010E0C6EACEF04F059
:10095000D890083609360C2A09AEB1EF04F0B3EF8F
:1009600004F0A8EF04F0D8900A360B360850065C65
:1009700009500758D8A0BFEF04F0C1EF04F0C6EF4C
:1009800004F00850065E0950075A0A80D8900932D0
:1009900008320C2EB3EF04F00AC006F00BC007F0CB
:1009A0001200F80E956E8C908C828C84210EE82EAD
:1009B000FED700F083CF01F08C94210EE82EFED7F5
:1009C00000F08C84210EE82EFED700F08C940150AC
:1009D000800B016E00EF05F08C84210EE82EFED70F
:1009E00000F083CF01F08C94210EE82EFED700F0AA
:1009F0008C84210EE82EFED700F08C94E7EF04F0F3
:100A0000800E0118D8B407EF05F009EF05F0ECEF00
:100A100004F0120003500410D8B411EF05F013EFE6
:100A200005F037EF05F0010E056E1BEF05F0D890CD
:100A300003360436052A04AE20EF05F022EF05F058
:100A400017EF05F00350015C04500258D8A02BEFBB
:100A500005F02DEF05F031EF05F00350015E045075
:100A6000025AD89004320332052E22EF05F001C05D
:100A700001F002C002F012008C908C92300E56EC05
:100A800006F0030E046E980EE82EFED7042EFCD757
:100A9000300E56EC06F0210EE82EFED700F0300E98
:100AA00056EC06F0200E56EC06F0010EE0EC05F0D8
:100AB000280EE0EC05F00F0EE0EC05F0060EE0EC81
:100AC00005F0010EE0EC05F0120005C001F006C0D3
:100AD00002F0A7EC05F00150096E000E0A6E80EFDF
:100AE00005F00A500524076E000E0620086E07C0A8
:100AF000F6FF08C0F7FF0800F550FAEC05F00A2AE7
:100B000009500A5CD8A087EF05F089EF05F071EF76
:100B100005F01200056E0504D8A491EF05F093EFDF
:100B200005F099EF05F00450800FE0EC05F0A6EF1A
:100B300005F0020E0518D8A4A0EF05F0A2EF05F00D
:100B4000A6EF05F00450C00FE0EC05F0120001C064
:100B500003F002C004F0AFEF05F0014A022A01C021
:100B6000F6FF02C0F7FF0800F5500009D8A4BBEF5C
:100B700005F0BDEF05F0ADEF05F00350015C016E2F
:100B800004500258026E1200520ED36E92800F0172
:100B90005B8193805C91F19E8580949C5D9D948E99
:100BA0005D9F000E956E000E5E6F010EC26E080E08
:100BB000C16EA40EC06ED00E7D6E14EC06F0120055
:100BC000026E8C90D1EC04F0000E956E210EE82E92
:100BD000FED700F08C928C948C900250F00B036E38
:100BE000035056EC06F00238F00B036E035056EC3F
:100BF00006F01200026E8C80D1EC04F0000E956EAF
:100C0000210EE82EFED700F08C928C948C8002503E
:100C1000F00B036E035056EC06F00238F00B036E37
:100C2000035056EC06F01200140E056E7A0EE82EF4
:100C3000FED7052EFCD73CEC05F0140E056E7A0E9F
:100C4000E82EFED7052EFCD775EC06F071EC06F009
:100C5000010E2CEC06F01200046E0450D8A433EF01
:100C600006F035EF06F038EF06F00E0EE0EC05F07A
:100C70000404D8A43EEF06F040EF06F043EF06F080
:100C80000C0EE0EC05F01200C282C2B24AEF06F090
:100C90004CEF06F045EF06F0C450026E016AC350F7
:100CA00001240F6E000E0220106E1200016E0F0E56
:100CB0008C16F00E011601508C128C84210EE82E39
:100CC000FED700F08C941200146A136A126A116A3B
:100CD000106A0F6A000EF86E080EF76E000153EFEF
:100CE00004F0020EE0EC05F01200010EE0EC05F05D
:020CF0001200F0
:020000040020DA
:08000000FFFFFFFFFFFFFFFF00
:020000040030CA
:0E0000000008583CFFD181FF0FC00FE00F40F9
:00000001FF
