:04000000F6EF06F021
:1008000000436F6E2050494331384634354B353004
:1008100000436972637569746F20636F6E20656C45
:10082000002073656E736F72204448543232004C5E
:0D08300063642031367832204932430000E5
:10083E00ECEC06F04E0ED5EC06F0000ED5EC06F004
:10084E00E2EC06F0140E086E7A0EE82EFED7082E95
:10085E00FCD7000E096E030E066E000EBAEC06F003
:10086E00070E086E7D0EE82EFED7082EFCD700F080
:10087E00092A020E096446EF04F048EF04F032EF45
:10088E0004F0020E066E000EBAEC06F0280E066E8E
:10089E00000EBAEC06F0070E086E7D0EE82EFED79F
:1008AE00082EFCD700F0080E066E000EBAEC06F00D
:1008BE00070E086E7D0EE82EFED7082EFCD700F030
:1008CE00010E066E000EBAEC06F0070E086E7D0ED7
:1008DE00E82EFED7082EFCD700F0060E066E000E90
:1008EE00BAEC06F0070E086E7D0EE82EFED7082E27
:1008FE00FCD700F00C0E066E000EBAEC06F01200DD
:10090E00046E03A08DEF04F08FEF04F094EF04F06B
:10091E0005501009056E97EF04F00550EF0B056EAC
:10092E0003A29CEF04F09EEF04F0A3EF04F0055039
:10093E002009056EA6EF04F00550DF0B056E03A42B
:10094E00ABEF04F0ADEF04F0B2EF04F00550400948
:10095E00056EB5EF04F00550BF0B056E03A6BAEF9A
:10096E0004F0BCEF04F0C1EF04F005508009056EF1
:10097E00C4EF04F005507F0B056E140EE82EFED763
:10098E000404D8A4CDEF04F0CFEF04F0D4EF04F0BC
:10099E0005500109056ED7EF04F00550FE0B056EEC
:1009AE0005500409C8EC06F000D00550FB0BC8EC4E
:1009BE0006F012000B6E04EF05F008048009066EB7
:1009CE00000EBAEC06F021EF05F00804C009066E21
:1009DE00000EBAEC06F021EF05F008049409066E3D
:1009EE00000EBAEC06F021EF05F00804D409066EED
:1009FE00000EBAEC06F021EF05F00B50096E0A6AF4
:100A0E000A50000AD8B40EEF05F021EF05F0095098
:100A1E00010AD8B4E4EF04F0030AD8B4ECEF04F002
:100A2E00010AD8B4F4EF04F0070AD8B4FCEF04F0CE
:100A3E0021EF05F01200F80E956E8C908C828C844E
:100A4E00210EE82EFED700F083CF01F08C94210EFC
:100A5E00E82EFED700F08C84210EE82EFED700F093
:100A6E008C940150800B016E51EF05F08C84210E99
:100A7E00E82EFED700F083CF01F08C94210EE82EE5
:100A8E00FED700F08C84210EE82EFED700F08C9459
:100A9E0038EF05F0800E0118D8B458EF05F05AEF74
:100AAE0005F03DEF05F012008C908C92300EACEC00
:100ABE0006F0030E046E980EE82EFED7042EFCD719
:100ACE00300EACEC06F0210EE82EFED700F0300E04
:100ADE00ACEC06F0200EACEC06F0010E38EC06F095
:100AEE00280E38EC06F00F0E38EC06F0060E38EC39
:100AFE0006F0010E38EC06F0120005C001F006C03B
:100B0E0002F0E4EC05F00150096E000E0A6E9FEF44
:100B1E0005F00A500524076E000E0620086E07C069
:100B2E00F6FF08C0F7FF0800F5501EEC06F00A2A83
:100B3E0009500A5CD8A0A6EF05F0A8EF05F090EFDB
:100B4E0005F0120099EC06F082EC06F0010E086E2C
:100B5E00010EE1EC04F02F0E086E080E096E01EC8A
:100B6E0006F0010E086E020EE1EC04F0010E086EA6
:100B7E00080E096E01EC06F0ADEF05F000EF00F087
:100B8E00056E0504D8A4CEEF05F0D0EF05F0D6EF34
:100B9E0005F00450800F38EC06F0E3EF05F0020E7E
:100BAE000518D8A4DDEF05F0DFEF05F0E3EF05F053
:100BBE000450C00F38EC06F0120001C003F002C062
:100BCE0004F0ECEF05F0014A022A01C0F6FF02C064
:100BDE00F7FF0800F5500009D8A4F8EF05F0FAEF7A
:100BEE0005F0EAEF05F00350015C016E0450025867
:100BFE00026E12000FEF06F008C0F6FF09C0F7FFF5
:100C0E000800F5CF06F0010EBAEC06F0084A092AE4
:100C1E0008C0F6FF09C0F7FF0800F5500009D8A478
:100C2E001BEF06F01DEF06F003EF06F01200026E4A
:100C3E008C8022EC05F0000E956E210EE82EFED76C
:100C4E0000F08C928C948C800250F00B036E03504B
:100C5E00ACEC06F00238F00B036E0350ACEC06F071
:100C6E001200026E8C9022EC05F0000E956E210E95
:100C7E00E82EFED700F08C928C948C900250F00BE4
:100C8E00036E0350ACEC06F00238F00B036E03500B
:100C9E00ACEC06F01200140E056E7A0EE82EFED79E
:100CAE00052EFCD75BEC05F0140E056E7A0EE82EC1
:100CBE00FED7052EFCD7FFEC06F0FBEC06F0010E7E
:100CCE006AEC06F01200046E0450D8A471EF06F020
:100CDE0073EF06F076EF06F00E0E38EC06F0040415
:100CEE00D8A47CEF06F07EEF06F081EF06F00C0E36
:100CFE0038EC06F01200000E046E010EC7EC05F083
:100D0E00110E056E080E066E84EC05F0000E046ED4
:100D1E00020EC7EC05F0210E056E080E066E84EC71
:100D2E0005F01200520ED36E000E956E000E0F01DE
:100D3E005E6FC68AC650F00B0809C66E770EC86E77
:100D4E0052EC06F01FEC04F01200016E0F0E8C1622
:100D5E00F00E011601508C128C84210EE82EFED757
:100D6E0000F08C941200076E06380F0B036E0750BE
:100D7E0087EC04F006500F0B036E075087EC04F05F
:100D8E001200026EECEC06F04E0ED5EC06F00250A0
:100D9E000809D5EC06F0E2EC06F01200016E01C077
:100DAE00C9FF9EA6DDEF06F0DFEF06F0D8EF06F0E6
:100DBE009E96C5501200C5849EA6E8EF06F0EAEF97
:100DCE0006F0E3EF06F09E961200C5809EA6F2EFA7
:100DDE0006F0F4EF06F0EDEF06F09E961200000E10
:100DEE00F86E0001A9EF05F0020E38EC06F01200C5
:080DFE00010E38EC06F01200B2
:020000040020DA
:08000000FFFFFFFFFFFFFFFF00
:020000040030CA
:0E0000000008583CFFD181FF0FC00FE00F40F9
:00000001FF
