:020000000FD01F
:02000800A2D084
:100020000F01520ED36ED26A5B6B926A5C6B936A5D
:10003000F00E956EFF0E8C6EF86A006A810ED56E1A
:10004000A00EF26E01D8FED700C001F0040EF76ECC
:1000500001C0F6FF0800200EF56201D00ED0410E5F
:10006000F55CF66E030EF76E0800F5CF8AFF020E00
:10007000F76E0800F5CF89FF02D08A6A896A8C90F2
:1000800059D88C80040EF76E012A01C0F6FF0800D3
:10009000200EF56201D00ED0410EF55CF66E030E17
:1000A000F76E0800F5CF8AFF020EF76E0800F5CF55
:1000B00089FF02D08A6A896A8C923CD88C82040EAD
:1000C000F76E012A01C0F6FF0800200EF56201D08C
:1000D0000ED0410EF55CF66E030EF76E0800F5CFFC
:1000E0008AFF020EF76E0800F5CF89FF02D08A6AF8
:1000F000896A8C941FD88C84040EF76E012A01C083
:10010000F6FF0800200EF56201D00ED0410EF55C1E
:10011000F66E030EF76E0800F5CF8AFF020EF76E3B
:100120000800F5CF89FF02D08A6A896A8C9602D8C6
:100130008C8612000000000000000000000000009B
:100140000000000000000000000000001200F29417
:0E0150001E0E006202D0006A1000002A10008D
:10020000882A002288880888220094000511008826
:0A0210001090882200445055254448
:10030000CF3FF33FF3C3FBCC337CC0F0CCCCFFC773
:0A031000FFC7BB03FCC0CC000033A4
:1004000020202048414345204652494F2050524F1A
:1004100046452041504147554520454C2041432009
:0204200020209A
:020000040030CA
:040000000028583C40
:02000500518127
:060008000FC00FE00F40E5
:00000001FF
