:020000000FD01F
:020008002ED0F8
:0200180030D0E6
:100020000F01520ED36E800E956E5E6FFC0E926EB7
:100030005B6F93805C91858093825C938582D08E88
:10004000F28EF28CF288F086F19CF19AF09C010E0F
:10005000896EF86A010EF76E000EF66E006A4EECBD
:1000600000F0891EFCD7F292090E006202D0006AED
:1000700001D0002A48EC00F01000F090000E006261
:1000800003D0090E006E01D0000648EC00F010000D
:1000900000C0F6FF0800F5CF8CFF1200500E016E75
:1000A00056EC00F0012E50EF00F01200140E026E1C
:1000B0005EEC00F0022E58EF00F01200140E036EFA
:0A00C0000000032E60EF00F01200B4
:0A0100003F065B4F666D7D077F67C9
:020000040030CA
:040000000008583C60
:02000500D181A7
:060008000FC00FE00F40E5
:00000001FF
