:040000005DEF00F0C0
:100008001982F29232EF00F0050EBE6E010E186EE4
:100018005BEF00F00F0EBE6E020E186E5BEF00F085
:10002800190EBE6E030E186E5BEF00F0230EBE6E47
:10003800040E186E5BEF00F02D0EBE6E050E186EE6
:100048005BEF00F0370EBE6E060E186E5BEF00F029
:100058003E0EBE6E000E186E5BEF00F01850016E7B
:10006800026A0250000AD8B43CEF00F05BEF00F0DF
:100078000150000AD8B408EF00F0010AD8B40EEF16
:1000880000F0030AD8B414EF00F0010AD8B41AEF4C
:1000980000F0070AD8B420EF00F0010AD8B426EF20
:1000A80000F0030AD8B42CEF00F05BEF00F01992CF
:0600B800110081EF06F0CB
:10080000004D6963726F2053656D616E61203131F7
:10081000004C4D33353A00000FC008F010C009F00D
:10082000270E0B6E100E0A6EABEC04F00850176E1C
:10083000270E066E100E056E0FC003F010C004F0F8
:100840001EEC05F003C008F004C009F0030E0B6EA7
:10085000E80E0A6EABEC04F00850166E030E066E3E
:10086000E80E056E0FC003F010C004F01EEC05F09A
:1008700003C008F004C009F0000E0B6E640E0A6E8F
:10088000ABEC04F00850156E000E066E640E056E9B
:100890000FC003F010C004F01EEC05F003C008F018
:1008A00004C009F0000E0B6E0A0E0A6EABEC04F0E9
:1008B0000850146E0FC003F010C004F0000E066E56
:1008C0000A0E056E1EEC05F00350136E120079EC53
:1008D00005F0000E066E010EC3EC05F0010E076E6A
:1008E000080E086E9EEC05F061EC06F003C008F0FF
:1008F00004C009F0000E0B6E0A0E0A6EABEC04F099
:1009000008C011F009C012F011C00FF012C010F0B1
:100910000CEC04F0000E066E020EC3EC05F0110E96
:10092000076E080E086E9EEC05F01550300F17ECA0
:1009300006F01450300F17EC06F01350300F17EC80
:1009400006F0DF0E17EC06F0430E17EC06F074EF1E
:1009500004F05DEF00F0000E0D6E000E0C6E0A50FC
:100960000B10D8B4B6EF04F0B8EF04F0E0EF04F0E9
:10097000010E0E6EC0EF04F0D8900A360B360E2A28
:100980000BAEC5EF04F0C7EF04F0BCEF04F0D89055
:100990000C360D360A50085C0B500958D8A0D3EF1E
:1009A00004F0D5EF04F0DAEF04F00A50085E0B50C3
:1009B000095A0C80D8900B320A320E2EC7EF04F081
:1009C0000CC008F00DC009F01200F80E956E8C9066
:1009D0008C828C84210EE82EFED700F083CF03F0AA
:1009E0008C94210EE82EFED700F08C84210EE82E88
:1009F000FED700F08C940350800B036E14EF05F0CB
:100A00008C84210EE82EFED700F083CF03F08C9467
:100A1000210EE82EFED700F08C84210EE82EFED7A2
:100A200000F08C94FBEF04F0800E0318D8B41BEF99
:100A300005F01DEF05F000EF05F01200055006105F
:100A4000D8B425EF05F027EF05F04BEF05F0010EC8
:100A5000076E2FEF05F0D89005360636072A06AE4A
:100A600034EF05F036EF05F02BEF05F00550035C91
:100A700006500458D8A03FEF05F041EF05F045EFD0
:100A800005F00550035E0650045AD8900632053230
:100A9000072E36EF05F003C003F004C004F0120087
:100AA0008C908C92300E73EC06F0030E066E980E4E
:100AB000E82EFED7062EFCD7300E73EC06F0210E82
:100AC000E82EFED700F0300E73EC06F0200E73EC2B
:100AD00006F0010EFDEC05F0280EFDEC05F00F0E02
:100AE000FDEC05F0060EFDEC05F0010EFDEC05F049
:100AF0001200520ED36E92800F015B8193805C9145
:100B0000F19E8580BB0E946E3B0E5D6F080E956E58
:100B1000000E5E6F010EC26E040EC16EA40EC06E9A
:100B200031EC06F03E0EBB6E1F0EBE6E060EBA6EA8
:100B30000C0EBD6EF28EF288F19C120007C003F01D
:100B400008C004F0E0EC05F003500B6E000E0C6ED4
:100B5000B9EF05F00C500724096E000E08200A6E4C
:100B600009C0F6FF0AC0F7FF0800F55017EC06F0C1
:100B70000C2A0B500C5CD8A0C0EF05F0C2EF05F0BA
:100B8000AAEF05F01200076E0704D8A4CAEF05F01B
:100B9000CCEF05F0D2EF05F00650800FFDEC05F02C
:100BA000DFEF05F0020E0718D8A4D9EF05F0DBEF50
:100BB00005F0DFEF05F00650C00FFDEC05F0120068
:100BC00003C005F004C006F0E8EF05F0034A042A6C
:100BD00003C0F6FF04C0F7FF0800F5500009D8A4D1
:100BE000F4EF05F0F6EF05F0E6EF05F00550035CD5
:100BF000036E06500458046E1200046E8C90E5ECEF
:100C000004F0000E956E210EE82EFED700F08C92B7
:100C10008C948C900450F00B056E055073EC06F02C
:100C20000438F00B056E055073EC06F01200046EEC
:100C30008C80E5EC04F0000E956E210EE82EFED7B8
:100C400000F08C928C948C800450F00B056E055053
:100C500073EC06F00438F00B056E055073EC06F0EB
:100C60001200140E076E7A0EE82EFED7072EFCD760
:100C700050EC05F0140E076E7A0EE82EFED7072E04
:100C8000FCD792EC06F08EEC06F0010E49EC06F073
:100C90001200066E0650D8A450EF06F052EF06F090
:100CA00055EF06F00E0EFDEC05F00604D8A45BEF40
:100CB00006F05DEF06F060EF06F00C0EFDEC05F0BF
:100CC0001200C282C2B267EF06F069EF06F062EF6F
:100CD00006F0C450066E056AC3500524036E000E6C
:100CE0000620046E1200036E0F0E8C16F00E031613
:100CF00003508C128C84210EE82EFED700F08C94C9
:100D00001200186A176A166A156A146A136A19902B
:100D10001992000EF86E000167EF04F0020EFDEC70
:0C0D200005F01200010EFDEC05F01200C1
:020000040020DA
:08000000FFFFFFFFFFFFFFFF00
:020000040030CA
:0E0000000008583CFFD181FF0FC00FE00F40F9
:00000001FF
