:040000007FEF3FF05F
:107EFE0000018CEF3FF0520ED36EC68AC650F00BC7
:107F0E000809C66E770EC86E120082EC3FF0410E65
:107F1E00CCEC3FF0FF0A026E420E9AEC3FF08EEF71
:107F2E003FF000EF00F0036EC580C5B0A1EF3FF04B
:107F3E00A3EF3FF09CEF3FF003C0C9FFC7B0AAEF1D
:107F4E003FF0ACEF3FF0A5EF3FF0C7B4B1EF3FF01D
:107F5E00B3EF3FF0ACEF3FF002C0C9FFC7B0BAEFCE
:107F6E003FF0BCEF3FF0B5EF3FF0C7B4C1EF3FF0CD
:107F7E00C3EF3FF0BCEF3FF0C584C5B4C9EF3FF08F
:107F8E00CBEF3FF0C4EF3FF01200016EC580C5B0DD
:107F9E00D3EF3FF0D5EF3FF0CEEF3FF001C0C9FF7A
:107FAE00C7B0DCEF3FF0DEEF3FF0D7EF3FF0C7B4E6
:107FBE00E3EF3FF0E5EF3FF0DEEF3FF0C586C7A001
:107FCE00EBEF3FF0EDEF3FF0E6EF3FF0C58AC588EF
:107FDE00C5B8F4EF3FF0F6EF3FF0EFEF3FF0C5849A
:107FEE00C5B4FCEF3FF0FEEF3FF0F7EF3FF0C950A6
:027FFE0012006F
:020000040020DA
:08000000FFFFFFFFFFFFFFFF00
:020000040030CA
:0E0000000008583CFFD181FF0FC00FE00F40F9
:00000001FF
