:020000000FD01F
:0200080019D10C
:100020000F01520ED36ED26A000E5E6F956AFF0EFC
:100030008C6E5D915C6B936AF86A830ED56EA00E30
:10004000F26E006A016A5B91026A80A001D003D857
:100050003AEC00F0FAD702A001D004D0830ED56E9E
:10006000027004D0800ED56E027000D080B036EFE2
:1000700000F0EED700C001F0200EF76E01C0F6FFD1
:100080000800200EF56201D009D0410EF55CF66E35
:10009000100EF76E0800F5CF8AFF01D08A6A8C90A7
:1000A00011EC01F08C80200EF76E01C0F6FFF62AED
:1000B0000800200EF56201D009D0410EF55CF66E05
:1000C000100EF76E0800F5CF8AFF01D08A6A8C9275
:1000D00011EC01F08C82200EF76E01C0F6FFF62ABB
:1000E000F62A0800200EF56201D009D0410EF55C19
:1000F000F66E100EF76E0800F5CF8AFF01D08A6AFF
:100100008C9411EC01F08C84200EF76E01C0F6FF88
:10011000F62AF62AF62A0800200EF56201D009D048
:10012000410EF55CF66E100EF76E0800F5CF8AFFF3
:1001300001D08A6A8C9611EC01F08C86200EF76E45
:1001400001C0F6FFF62AF62AF62AF62A0800200E43
:10015000F56201D009D0410EF55CF66E100EF76E17
:100160000800F5CF8AFF01D08A6A8C9811EC01F063
:100170008C88200EF76E01C0F6FFF62AF62AF62AC2
:10018000F62AF62A0800200EF56201D009D0410EA9
:10019000F55CF66E100EF76E0800F5CF8AFF01D001
:1001A0008A6A8C9A11EC01F08C8A200EF76E01C0DD
:1001B000F6FFF62AF62AF62AF62AF62AF62A080082
:1001C000200EF56201D009D0410EF55CF66E100EDE
:1001D000F76E0800F5CF8AFF01D08A6A8C9C11EC7B
:1001E00001F08C8C200EF76E01C0F6FFF62AF62A7D
:1001F000F62AF62AF62AF62AF62A0800200EF562D2
:1002000001D009D0410EF55CF66E100EF76E0800B5
:10021000F5CF8AFF01D08A6A8C9E11EC01F08C8E9A
:1002200012000000000000000000000000000000BC
:10023000000000000000000000001200F2944D0ECB
:0E024000006225EF01F0006A1000002A100095
:10100000777C395E79716F74301E763815543F7372
:0A10100067506D783E1C2A766E5B77
:1020000020202020202020204C4F5320504F4C4C8B
:1020100049544F5320444943454E2050494F50495D
:102020004F50494F204355414E444F205449454E4F
:10203000454E2048414D425245204355414E444F64
:10204000205449454E454E204652494F20202020DD
:052050002020202020EB
:020000040030CA
:040000000028583C40
:02000500518127
:060008000FC00FE00F40E5
:00000001FF
