:020000000FD01F
:020008005ED0C8
:100020000F01520ED36E800E956E5E6FF80E946EB9
:100030005D6F96905F9192805B9192925B919294AA
:100040005B91880ED56EF28EF28AF294F86A056A98
:1000500080B001D004D0120EF76E068004D0130ECB
:10006000F76E069000D005C0F6FF38EC00F0F0D730
:10007000090072EC00F009C08CFF8B805DEC00F091
:100080008B90090072EC00F009C08CFF8B825DEC54
:1000900000F08B92090072EC00F009C08CFF8B8499
:1000A0005DEC00F08B94080072EC00F009C08CFF4E
:1000B0008D805DEC00F08D9012000A0E006E000045
:1000C000002EFDD71200F29406A003D08992897405
:1000D00002D089728994070E056202D0056A100069
:1000E000052A1000F5CF07F0074207420740070B2B
:1000F000076EF5CF08F0084608460844380B086E2E
:10010000F5CF09F0400E0916075008240926120001
:0B1200000000000073063877000000BB
:0B13000000000000737773770000000E
:020000040030CA
:040000000008583C60
:02000500518127
:060008000FC00FE00F40E5
:00000001FF
