:04000000B9EF3FF025
:107F30000102040810204080402010080402AAEC2E
:107F40003FF0400ECCEC3FF0FF0A8C6EA1EF3FF00B
:107F500000EF00F0520ED36E000E956E000E0F0172
:107F60005E6FC68AC650F00B0809C66E770EC86EE3
:107F70001200300EF66E7F0EF76E000EF86E00EEF9
:107F800001F010EE0EF00900F5CFEEFFE550E150E4
:107F9000FAE100019FEF3FF00F6EC580C5B0D3EF4F
:107FA0003FF0D5EF3FF0CEEF3FF00F28C96EC7B0DE
:107FB000DCEF3FF0DEEF3FF0D7EF3FF0C7B4E3EF89
:107FC0003FF0E5EF3FF0DEEF3FF0C586C7A0EBEFF7
:107FD0003FF0EDEF3FF0E6EF3FF0C58AC588C5B84A
:107FE000F4EF3FF0F6EF3FF0EFEF3FF0C584C5B49C
:107FF000FCEF3FF0FEEF3FF0F7EF3FF0C95012000B
:020000040020DA
:08000000FFFFFFFFFFFFFFFF00
:020000040030CA
:0E0000000008583CFFD181FF0FC00FE00F40F9
:00000001FF
