:040000005EEF3FF080
:107E8E000102040810204080402010080402520E07
:107E9E00D36E000E956E000E0F015E6F1200C68A35
:107EAE00C650F00B0809C66E770EC86E12008E0E05
:107EBE00F66E7E0EF76E000EF86E00EE01F010EE0E
:107ECE000EF00900F5CFEEFFE550E150FAE10001AA
:107EDE0071EF3FF04EEC3FF056EC3FF0000E126E9D
:107EEE00010E1224D96EDA6A000EDA22DF500F6EFE
:107EFE00400E9AEC3FF0400ECCEC3FF08C6E820EB2
:107F0E00116EDE0EE82EFED7112EFCD7122A0D0EA4
:107F1E00126494EF3FF096EF3FF077EF3FF075EF7E
:107F2E003FF000EF00F0106EC580C5B0A1EF3FF03E
:107F3E00A3EF3FF09CEF3FF010C0C9FFC7B0AAEF10
:107F4E003FF0ACEF3FF0A5EF3FF0C7B4B1EF3FF01D
:107F5E00B3EF3FF0ACEF3FF00FC0C9FFC7B0BAEFC1
:107F6E003FF0BCEF3FF0B5EF3FF0C7B4C1EF3FF0CD
:107F7E00C3EF3FF0BCEF3FF0C584C5B4C9EF3FF08F
:107F8E00CBEF3FF0C4EF3FF012000F6EC580C5B0CF
:107F9E00D3EF3FF0D5EF3FF0CEEF3FF00F28C96E95
:107FAE00C7B0DCEF3FF0DEEF3FF0D7EF3FF0C7B4E6
:107FBE00E3EF3FF0E5EF3FF0DEEF3FF0C586C7A001
:107FCE00EBEF3FF0EDEF3FF0E6EF3FF0C58AC588EF
:107FDE00C5B8F4EF3FF0F6EF3FF0EFEF3FF0C5849A
:107FEE00C5B4FCEF3FF0FEEF3FF0F7EF3FF0C950A6
:027FFE0012006F
:020000040020DA
:08000000FFFFFFFFFFFFFFFF00
:020000040030CA
:0E0000000008583CFFD181FF0FC00FE00F40F9
:00000001FF
