:04000000FFEF00F01E
:100008001E82F6CF0DF0F7CF0EF0F8CF0FF0F5CF38
:1000180010F09EAA12EF00F014EF00F069EF00F064
:1000280048EF00F0830E056E080E066EEFEC05F043
:1000380058EC07F0F5EF00F0910E056E080E066E0D
:10004800EFEC05F01CEF00F09F0E056E080E066E33
:10005800EFEC05F01CEF00F0AD0E056E080E066E15
:10006800EFEC05F01CEF00F0BB0E056E080E066EF7
:10007800EFEC05F01CEF00F0010E056E080E066EA1
:10008800EFEC05F01CEF00F0AE500B6E0C6A0C5054
:10009800000AD8B452EF00F040EF00F00B50410ACC
:1000A800D8B416EF00F0040AD8B420EF00F00C0A18
:1000B800D8B428EF00F0060AD8B430EF00F01A0AD6
:1000C800D8B438EF00F040EF00F0F2A26EEF00F085
:1000D80070EF00F0AFEF00F0F292000E046E010E28
:1000E80073EC06F0740E056E080E066E14EC06F03E
:1000F800000E046E020E73EC06F0D60E056E080EA6
:10010800066E14EC06F0DF0EE1EC06F03B0E056E11
:10011800080E066EEFEC05F058EC07F0000E116EB5
:100128008980E90EE82EFED700F089901A0E0B6E32
:100138000F0EE82EFED70B2EFCD700F0112A4F0E1B
:100148001164A9EF00F0ABEF00F094EF00F0B4EC0D
:1001580007F0F5EF00F0F0A0B4EF00F0B6EF00F014
:10016800F5EF00F0F090000E046E010E73EC06F04F
:10017800740E056E080E066E14EC06F0000E046E82
:10018800020E73EC06F0E20E056E080E066E14EC15
:1001980006F0DF0EE1EC06F01F0E056E080E066E87
:1001A800EFEC05F058EC07F0000E116E8980030E95
:1001B8000B6EFC0EE82EFED70B2EFCD78990170E7F
:1001C8000B6EFC0EE82EFED70B2EFCD7112A4F0E15
:1001D8001164F1EF00F0F3EF00F0DAEF00F0ABEFAD
:1001E80000F010C0F5FF0FC0F8FF0EC0F7FF0DC0FC
:0A01F800F6FF1E921100A5EF07F0BC
:10080000005465636C612065727261646120696E79
:1008100074656E7465206465206E7565766F004D35
:100820006F7669656E646F20736572766F206120E4
:1008300031383020677261646F73004D6F7669657F
:100840006E646F20736572766F206120302067724E
:1008500061646F73004573666F727A616E646F6D69
:100860006521212100555043204D6F6E74657272D1
:1008700069636F004D6F7669656E646F2073657292
:10088000766F0050726573696F6E61737465204195
:100890000050726573696F6E617374652045005016
:1008A000726573696F6E617374652049005072657B
:1008B00073696F6E61737465204F00507265736960
:1008C0006F6E617374652055004D6963726F2032DD
:1008D0003032332D3100416E67756C6F3A20303005
:1008E0003000416E67756C6F3A2031383000486FC8
:1008F0006C61206D756E646F0000000E156E010E48
:1009000039EC06F0EE0E166E080E176ECAEC05F006
:10091000000E156E020E39EC06F0650E166E080E0E
:10092000176ECAEC05F0EE0E166E080E176EA5ECEB
:1009300005F045EC07F0650E166E080E176EA5EC77
:1009400005F045EC07F0100E1D6E390E1C6E0E0EF4
:10095000E82EFED71C2EFCD71D2EFAD7000E156EE2
:10096000010E39EC06F0C90E166E080E176ECAECB1
:1009700005F0000E156E020E39EC06F0550E166EDF
:10098000080E176ECAEC05F0C90E166E080E176E2B
:10099000A5EC05F045EC07F0550E166E080E176E27
:1009A000A5EC05F045EC07F0100E1D6E390E1C6E1F
:1009B0000E0EE82EFED71C2EFCD71D2EFAD7B0EC5B
:1009C00007F01200F80E956E8D908D828D84210EA9
:1009D000E82EFED700F083CF12F08D94210EE82E82
:1009E000FED700F08D84210EE82EFED700F08D9406
:1009F0001250800B126E11EF05F08D84210EE82E3F
:100A0000FED700F083CF12F08D94210EE82EFED792
:100A100000F08D84210EE82EFED700F08D94F8EFC3
:100A200004F0800E1218D8B418EF05F01AEF05F094
:100A3000FDEF04F01200F80E956E8D908D828D847E
:100A4000210EE82EFED700F083CF01F08D94210E09
:100A5000E82EFED700F08D84210EE82EFED700F0A0
:100A60008D940150800B016E4AEF05F08D84210EAC
:100A7000E82EFED700F083CF01F08D94210EE82EF2
:100A8000FED700F08D84210EE82EFED700F08D9465
:100A900031EF05F0800E0118D8B451EF05F053EF97
:100AA00005F036EF05F012008D908D92300E6BEC54
:100AB00007F0030E156E980EE82EFED7152EFCD704
:100AC000300E6BEC07F0210EE82EFED700F0300E52
:100AD0006BEC07F0200E6BEC07F0010EC7EC06F094
:100AE000280EC7EC06F00F0EC7EC06F0060EC7EC9A
:100AF00006F0010EC7EC06F01200520ED36E929073
:100B00000F015B9193825C9393805C91949C5D9DBB
:100B1000948E5D9F0F0E956E0F0E5E6FF80E966EA3
:100B2000F80E5F6F15EC07F0F19E030E856EF288EC
:100B3000F086F28EF28CAC84000EB06E190EAF6EA1
:100B4000AC8AAB8EAB889D8A120016C012F017C01B
:100B500013F056EC06F012501A6E000E1B6EC0EF2A
:100B600005F01B501624186E000E1720196E18C0C1
:100B7000F6FF19C0F7FF0800F55087EC07F01B2AB5
:100B80001A501B5CD8A0C7EF05F0C9EF05F0B1EF14
:100B900005F0120016C012F017C013F056EC06F064
:100BA00012501A6E000E1B6EE5EF05F01B50162456
:100BB000186E000E1720196E18C0F6FF19C0F7FF47
:100BC0000800F550ADEC06F01B2A1A501B5CD8A0AB
:100BD000ECEF05F0EEEF05F0D6EF05F0120005C0E2
:100BE00001F006C002F090EC06F00150096E000E14
:100BF0000A6E0AEF06F00A500524076E000E062062
:100C0000086E07C0F6FF08C0F7FF0800F55092EC29
:100C100007F00A2A09500A5CD8A011EF06F013EF7A
:100C200006F0FBEF05F0120005C001F006C002F06F
:100C300090EC06F00150096E000E0A6E2FEF06F0E0
:100C40000A500524076E000E0620086E07C0F6FF46
:100C500008C0F7FF0800F550E1EC06F00A2A095039
:100C60000A5CD8A036EF06F038EF06F020EF06F069
:100C70001200166E1604D8A440EF06F042EF06F0FC
:100C800048EF06F01550800FC7EC06F055EF06F060
:100C9000020E1618D8A44FEF06F051EF06F055EFEC
:100CA00006F01550C00FC7EC06F0120012C014F089
:100CB00013C015F05EEF06F0124A132A12C0F6FFB9
:100CC00013C0F7FF0800F5500009D8A46AEF06F03A
:100CD0006CEF06F05CEF06F01450125C126E1550CB
:100CE0001358136E1200056E0504D8A47AEF06F0AF
:100CF0007CEF06F082EF06F00450800FFBEC06F06C
:100D00008FEF06F0020E0518D8A489EF06F08BEFDE
:100D100006F08FEF06F00450C00FFBEC06F0120057
:100D200001C003F002C004F098EF06F0014A022A65
:100D300001C0F6FF02C0F7FF0800F5500009D8A473
:100D4000A4EF06F0A6EF06F096EF06F00350015C64
:100D5000016E04500258026E1200136E8D80E2EC98
:100D600004F0000E956E210EE82EFED700F08D9255
:100D70008D948D801350F00B146E14506BEC07F0B3
:100D80001338F00B146E14506BEC07F01200136E56
:100D90008D90E2EC04F0000E956E210EE82EFED749
:100DA00000F08D928D948D901350F00B146E1450B2
:100DB0006BEC07F01338F00B146E14506BEC07F06B
:100DC0001200026E8D801BEC05F0000E956E210E58
:100DD000E82EFED700F08D928D948D800250F00B9E
:100DE000036E035079EC07F00238F00B036E0350EA
:100DF00079EC07F01200026E8D901BEC05F0000EEE
:100E0000956E210EE82EFED700F08D928D948D9078
:100E10000250F00B036E035079EC07F00238F00B30
:100E2000036E035079EC07F01200140E166E7A0E62
:100E3000E82EFED7162EFCD754EC05F0140E166ED5
:100E40007A0EE82EFED7162EFCD7B0EC07F0ACECED
:100E500007F0010E2DEC07F01200156E1550D8A406
:100E600034EF07F036EF07F039EF07F00E0EC7EC5E
:100E700006F01504D8A43FEF07F041EF07F044EF68
:100E800007F00C0EC7EC06F012000A0EAD6EACA215
:100E90004CEF07F04EEF07F047EF07F00D0EAD6E89
:100EA000ACA255EF07F057EF07F050EF07F0120034
:100EB0000A0EAD6EACA25FEF07F061EF07F05AEFDC
:100EC00007F00D0EAD6EACA268EF07F06AEF07F009
:100ED00063EF07F01200126E0F0E8C16F00E121652
:100EE00012508C128D84210EE82EFED700F08D94C6
:100EF0001200016E0F0E8C16F00E011601508C12AE
:100F00008D84210EE82EFED700F08D941200126E13
:100F100012C0ADFFACA28FEF07F091EF07F08AEFA0
:100F200007F01200016E01C0ADFFACA29AEF07F00E
:100F30009CEF07F095EF07F012007DEC05F07DECDB
:100F400004F0A1EF07F0FFEF00F01E901E92000EDC
:100F5000F86E00019DEF07F0020EC7EC06F01200DC
:100F6000010EC7EC06F01200010EFBEC06F01200B9
:020000040020DA
:08000000FFFFFFFFFFFFFFFF00
:020000040030CA
:0E0000000008583CFFD181FF0FC00FE00F40F9
:00000001FF
