:040000006AEF00F0B3
:06000800308259EF04F004
:100018003080D8CF1CF0E8CF1DF0E0CF1EF0F6CF2F
:100028001FF0F7CF20F0F8CF21F0F5CF22F0F090B5
:10003800000E146E010EF2EC06F05D0E156E080E41
:10004800166E49EC06F0000E146E020EF2EC06F085
:100058007E0E156E080E166E49EC06F0DF0E9AEC51
:1000680007F0230E156E080E166E24EC06F045EC0C
:1000780008F0000E236E8980030E1B6EFC0EE82E1E
:10008800FED71B2EFCD78990170E1B6EFC0EE82E90
:10009800FED71B2EFCD7232A310E236456EF00F01F
:1000A80058EF00F03FEF00F0CFEC08F022C0F5FF6A
:1000B80021C0F8FF20C0F7FF1FC0F6FF1EC0E0FFF9
:1000C8001DC0E8FF1CC0D8FF30901000B6EF08F044
:10080000004D6F7669656E646F20736572766F6DEB
:100810006F746F722061206365726F20677261640C
:100820006F73004D6F7669656E646F2073657276C5
:100830006F6D6F746F722061203138302067726184
:10084000646F7300536F7920656C20706963313871
:100850002C2068617A6D65206361736F0053657247
:10086000766F6D6F746F72202020202020006D6FD6
:100870007669656E646F73652061202030006D6F4E
:100880007669656E646F20612020313830004D69D3
:1008900063726F20323032332D3100486F6C61202B
:1008A0006D756E646F0053656D616E61203133004C
:0108B0000047
:1008B200F6CF0CF0F7CF0DF0F8CF0EF0F5CF0FF02A
:1008C200F292000E046E010E2CEC07F05D0E056E26
:1008D200080E066E93EC06F0000E046E020E2CEC6F
:1008E20007F06E0E056E080E066E93EC06F0DF0E34
:1008F200CEEC07F0010E056E080E066E6EEC06F0E9
:1009020058EC08F0000E106E8980E90EE82EFED732
:1009120000F089901A0E0B6E0F0EE82EFED70B2EEA
:10092200FCD700F0102A310E10649AEF04F09CEF0D
:1009320004F085EF04F0D3EC08F00FC0F5FF0EC011
:10094200F8FF0DC0F7FF0CC0F6FF30921100F80E51
:10095200956E8D908D828D84210EE82EFED700F04B
:1009620083CF24F08D94210EE82EFED700F08D84E3
:10097200210EE82EFED700F08D942450800B246EB9
:10098200D7EF04F08D84210EE82EFED700F083CF3E
:1009920024F08D94210EE82EFED700F08D84210ED6
:1009A200E82EFED700F08D94BEEF04F0800E2418DE
:1009B200D8B4DEEF04F0E0EF04F0C3EF04F012006D
:1009C200F80E956E8D908D828D84210EE82EFED7C5
:1009D20000F083CF11F08D94210EE82EFED700F0A7
:1009E2008D84210EE82EFED700F08D941150800BDD
:1009F200116E10EF05F08D84210EE82EFED700F067
:100A020083CF11F08D94210EE82EFED700F08D8455
:100A1200210EE82EFED700F08D94F7EF04F0800E41
:100A22001118D8B417EF05F019EF05F0FCEF04F038
:100A32001200F80E956E8D908D828D84210EE82E17
:100A4200FED700F083CF01F08D94210EE82EFED761
:100A520000F08D84210EE82EFED700F08D94015017
:100A6200800B016E49EF05F08D84210EE82EFED732
:100A720000F083CF01F08D94210EE82EFED700F016
:100A82008D84210EE82EFED700F08D9430EF05F014
:100A9200800E0118D8B450EF05F052EF05F035EF93
:100AA20005F01200000E276E010EB8EC06F08E0E55
:100AB200286E080E296EFFEC05F0000E276E020E5E
:100AC200B8EC06F0A60E286E080E296EFFEC05F0B3
:100AD2009B0E286E080E296EDAEC05F032EC08F057
:100AE200440E286E080E296EDAEC05F032EC08F09E
:100AF200100E2F6E390E2E6E0E0EE82EFED72E2EF3
:100B0200FCD72F2EFAD7CBEC08F01200520ED36E80
:100B120092900F015B91F30E936EF00E5C6F949CBA
:100B22005D9D948E5D9F0F0E956E0F0E5E6FF80E9B
:100B3200966EF80E5F6FF19E030E856EF19CF19A30
:100B4200D08EF28EF28CF288F086F09C02EC08F0E5
:100B5200AC84000EB06E190EAF6EAC8AAB8E120072
:100B62008D908D92300E6BEC08F0030E276E980E6E
:100B7200E82EFED7272EFCD7300E6BEC08F0210EA4
:100B8200E82EFED700F0300E6BEC08F0200E6BEC76
:100B920008F0010E80EC07F0280E80EC07F00F0E33
:100BA20080EC07F0060E80EC07F0010E80EC07F0F7
:100BB200120028C024F029C025F0D5EC06F02450FC
:100BC2002C6E000E2D6EF5EF05F02D5028242A6EA6
:100BD200000E29202B6E2AC0F6FF2BC0F7FF08005B
:100BE200F55095EC08F02D2A2C502D5CD8A0FCEF86
:100BF20005F0FEEF05F0E6EF05F0120028C024F044
:100C020029C025F0D5EC06F024502C6E000E2D6E76
:100C12001AEF06F02D5028242A6E000E29202B6E82
:100C22002AC0F6FF2BC0F7FF0800F55066EC07F06C
:100C32002D2A2C502D5CD8A021EF06F023EF06F0D0
:100C42000BEF06F0120015C011F016C012F00FECF7
:100C520007F01150196E000E1A6E3FEF06F01A508F
:100C62001524176E000E1620186E17C0F6FF18C056
:100C7200F7FF0800F550A0EC08F01A2A19501A5C88
:100C8200D8A046EF06F048EF06F030EF06F012006B
:100C920015C011F016C012F00FEC07F01150196ECA
:100CA200000E1A6E64EF06F01A501524176E000E2D
:100CB2001620186E17C0F6FF18C0F7FF0800F5508F
:100CC2009AEC07F01A2A19501A5CD8A06BEF06F0BA
:100CD2006DEF06F055EF06F0120005C001F006C0F8
:100CE20002F049EC07F00150096E000E0A6E89EF1E
:100CF20006F00A500524076E000E0620086E07C093
:100D0200F6FF08C0F7FF0800F550ABEC08F00A2A1E
:100D120009500A5CD8A090EF06F092EF06F07AEF45
:100D220006F0120005C001F006C002F049EC07F01F
:100D32000150096E000E0A6EAEEF06F00A5005244D
:100D4200076E000E0620086E07C0F6FF08C0F7FF08
:100D52000800F550CEEC07F00A2A09500A5CD8A028
:100D6200B5EF06F0B7EF06F09FEF06F01200286E1F
:100D72002804D8A4BFEF06F0C1EF06F0C7EF06F0D3
:100D82002750800F80EC07F0D4EF06F0020E2818EF
:100D9200D8A4CEEF06F0D0EF06F0D4EF06F027503D
:100DA200C00F80EC07F0120024C026F025C027F007
:100DB200DDEF06F0244A252A24C0F6FF25C0F7FFFE
:100DC2000800F5500009D8A4E9EF06F0EBEF06F0B1
:100DD200DBEF06F02650245C246E27502558256E42
:100DE2001200156E1504D8A4F9EF06F0FBEF06F019
:100DF20001EF07F01450800FB4EC07F00EEF07F08C
:100E0200020E1518D8A408EF07F00AEF07F00EEF4C
:100E120007F01450C00FB4EC07F0120011C013F029
:100E220012C014F017EF07F0114A122A11C0F6FF90
:100E320012C0F7FF0800F5500009D8A423EF07F00D
:100E420025EF07F015EF07F01350115C116E1450E7
:100E52001258126E1200056E0504D8A433EF07F083
:100E620035EF07F03BEF07F00450800FE8EC07F096
:100E720048EF07F0020E0518D8A442EF07F044EF3E
:100E820007F048EF07F00450C00FE8EC07F012003B
:100E920001C003F002C004F051EF07F0014A022A38
:100EA20001C0F6FF02C0F7FF0800F5500009D8A400
:100EB2005DEF07F05FEF07F04FEF07F00350015CC3
:100EC200016E04500258026E1200256E8D80A8EC4D
:100ED20004F0000E956E210EE82EFED700F08D92E2
:100EE2008D948D802550F00B266E26506BEC08F009
:100EF2002538F00B266E26506BEC08F01200256E9A
:100F02008D90A8EC04F0000E956E210EE82EFED70F
:100F120000F08D928D948D902550F00B266E265008
:100F22006BEC08F02538F00B266E26506BEC08F0BF
:100F32001200126E8D80E1EC04F0000E956E210E0F
:100F4200E82EFED700F08D928D948D801250F00B1A
:100F5200136E135079EC08F01238F00B136E135025
:100F620079EC08F01200126E8D90E1EC04F0000EA4
:100F7200956E210EE82EFED700F08D928D948D9005
:100F82001250F00B136E135079EC08F01238F00B7C
:100F9200136E135079EC08F01200026E8D801AEC79
:100FA20005F0000E956E210EE82EFED700F08D9210
:100FB2008D948D800250F00B036E035087EC08F085
:100FC2000238F00B036E035087EC08F01200026E39
:100FD2008D901AEC05F0000E956E210EE82EFED7CC
:100FE20000F08D928D948D900250F00B036E0350A1
:100FF20087EC08F00238F00B036E035087EC08F020
:101002001200140E286E7A0EE82EFED7282EFCD778
:10101200B1EC05F0140E286E7A0EE82EFED7282EBB
:10102200FCD7CBEC08F0C7EC08F0010E1AEC08F084
:101032001200276E2750D8A421EF08F023EF08F002
:1010420026EF08F00E0E80EC07F02704D8A42CEF50
:1010520008F02EEF08F031EF08F00C0E80EC07F0EC
:1010620012000D0EAD6EACA239EF08F03BEF08F0A6
:1010720034EF08F00A0EAD6EACA242EF08F044EF76
:1010820008F03DEF08F012000D0EAD6EACA24CEF71
:1010920008F04EEF08F047EF08F00A0EAD6EACA272
:1010A20055EF08F057EF08F050EF08F012000D0E60
:1010B200AD6EACA25FEF08F061EF08F05AEF08F0F6
:1010C2000A0EAD6EACA268EF08F06AEF08F063EFAB
:1010D20008F01200246E0F0E8C16F00E2416245007
:1010E2008C128D84210EE82EFED700F08D94120012
:1010F200116E0F0E8C16F00E111611508C128D847B
:10110200210EE82EFED700F08D941200016E0F0E14
:101112008C16F00E011601508C128D84210EE82ED1
:10112200FED700F08D941200246E24C0ADFFACA255
:101132009DEF08F09FEF08F098EF08F01200116E93
:1011420011C0ADFFACA2A8EF08F0AAEF08F0A3EF20
:1011520008F01200016E01C0ADFFACA2B3EF08F0BF
:10116200B5EF08F0AEEF08F0120030903092000EAA
:10117200F86E080EF76E0001BFEF08F087EC05F07D
:1011820053EC05F0C3EF08F06AEF00F0020E80ECBA
:1011920007F01200010E80EC07F01200010EB4EC11
:0C11A20007F01200010EE8EC07F012004C
:020000040020DA
:08000000FFFFFFFFFFFFFFFF00
:020000040030CA
:0E0000000008583CFFD181FF0FC00FE00F40F9
:00000001FF
