:040000002AEF00F0F3
:060008001C8221EF07F04D
:100018001C80D8CF01F0E8CF02F0E0CF03F0F090D9
:100028001650D8A41AEF00F01CEF00F020EF00F0F3
:10003800010E166E22EF00F0000E166E03C0E0FFF0
:1000480002C0E8FF01C0D8FF1C90100040EF07F085
:10080000004C61626F7261746F72696F203300799E
:1008100061206A616C6500202020386269740020C4
:100820003130626974004348303A004348313A003D
:0108300000C7
:1008320060EC06F0000E076E010E83EC06F0010E6E
:10084200086E080E096E3BEC06F0000E076E020EF3
:1008520083EC06F00F0E086E080E096E3BEC06F0F4
:10086200100E136E390E126E0E0EE82EFED7122ED9
:10087200FCD7132EFAD751EC07F0000E076E010ECB
:1008820083EC06F0260E086E080E096E3BEC06F0AD
:10089200000E33EC05F01750D8A452EF04F054EFD9
:1008A20004F072EF04F014C010F015C011F0EEEC79
:1008B20004F01B50300FD7EC06F01A50300FD7EC73
:1008C20006F01950300FD7EC06F01850300FD7EC65
:1008D20006F01F0E086E080E096E3BEC06F094EF50
:1008E20004F014C012F015C013F0D8901332123273
:1008F200D8901332123212C010F013C011F0EEEC85
:1009020004F01A50300FD7EC06F01950300FD7EC24
:1009120006F01850300FD7EC06F0170E086E080ECE
:10092200096E3BEC06F0000E076E020E83EC06F039
:100932002B0E086E080E096E3BEC06F0010E33EC2E
:1009420005F01650D8A4A8EF04F0AAEF04F0C8EFFF
:1009520004F014C010F015C011F0EEEC04F01B50BE
:10096200300FD7EC06F01A50300FD7EC06F01950C2
:10097200300FD7EC06F01850300FD7EC06F01F0EF0
:10098200086E080E096E3BEC06F03EEF04F014C050
:1009920012F015C013F0D89013321232D8901332DD
:1009A200123212C010F013C011F0EEEC04F01A5023
:1009B200300FD7EC06F01950300FD7EC06F0185074
:1009C200300FD7EC06F0170E086E080E096E3BECDE
:1009D20006F03EEF04F02AEF00F010C009F011C05B
:1009E2000AF0030E0C6EE80E0B6E6DEC05F009506A
:1009F2001B6E030E076EE80E066E10C004F011C0E7
:100A020005F0E0EC05F004C009F005C00AF0000EA4
:100A12000C6E640E0B6E6DEC05F009501A6E000E32
:100A2200076E640E066E10C004F011C005F0E0EC13
:100A320005F004C009F005C00AF0000E0C6E0A0EA3
:100A42000B6E6DEC05F00950196E10C004F011C068
:100A520005F0000E076E0A0E066EE0EC05F004507B
:100A6200186E1200066E42EF05F0010EC26E5BEFC9
:100A720005F0050EC26E5BEF05F0090EC26E5BEF6C
:100A820005F00650046E056A0550000AD8B44CEF12
:100A920005F05BEF05F00450000AD8B436EF05F01C
:100AA200010AD8B43AEF05F0030AD8B43EEF05F0D4
:100AB2005BEF05F0C282C2B261EF05F063EF05F0B1
:100AC2005CEF05F0C450056E046AC3500424146E32
:100AD200000E0520156E1200000E0E6E000E0D6E39
:100AE2000B500C10D8B478EF05F07AEF05F0A2EFB6
:100AF20005F0010E0F6E82EF05F0D8900B360C3622
:100B02000F2A0CAE87EF05F089EF05F07EEF05F0B6
:100B1200D8900D360E360B50095C0C500A58D8A0EE
:100B220095EF05F097EF05F09CEF05F00B50095E8D
:100B32000C500A5A0D80D8900C320B320F2E89EFCE
:100B420005F00DC009F00EC00AF01200F80E956E05
:100B52008C908C828C84210EE82EFED700F083CFFD
:100B620004F08C94210EE82EFED700F08C84210E26
:100B7200E82EFED700F08C940450800B046ED6EF62
:100B820005F08C84210EE82EFED700F083CF04F00E
:100B92008C94210EE82EFED700F08C84210EE82ED4
:100BA200FED700F08C94BDEF05F0800E0418D8B487
:100BB200DDEF05F0DFEF05F0C2EF05F012000650A1
:100BC2000710D8B4E7EF05F0E9EF05F00DEF06F0F6
:100BD200010E086EF1EF05F0D89006360736082AA6
:100BE20007AEF6EF05F0F8EF05F0EDEF05F0065071
:100BF200045C07500558D8A001EF06F003EF06F099
:100C020007EF06F00650045E0750055AD8900732E7
:100C12000632082EF8EF05F004C004F005C005F016
:100C220012008C908C92300E32EC07F0030E076E9D
:100C3200980EE82EFED7072EFCD7300E32EC07F0C6
:100C4200210EE82EFED700F0300E32EC07F0200E17
:100C520032EC07F0010EBDEC06F0280EBDEC06F0FA
:100C62000F0EBDEC06F0060EBDEC06F0010EBDEC5B
:100C720006F0120008C004F009C005F0A0EC06F06E
:100C820004500C6E000E0D6E56EF06F00D50082447
:100C92000A6E000E09200B6E0AC0F6FF0BC0F7FFAA
:100CA2000800F550D7EC06F00D2A0C500D5CD8A0C8
:100CB2005DEF06F05FEF06F047EF06F01200520E0E
:100CC200D36E000E956E000E0F015E6F92805B81F7
:100CD20092825B8393805C9193825C93F18E858098
:100CE2008582F19CF19AD08EF28EF28CF09CF28881
:100CF200F086F1EC06F0A40EC06E000EC16E010E7D
:100D0200C26E1200086E0804D8A48AEF06F08CEFB7
:100D120006F092EF06F00750800FBDEC06F09FEF51
:100D220006F0020E0818D8A499EF06F09BEF06F021
:100D32009FEF06F00750C00FBDEC06F0120004C092
:100D420006F005C007F0A8EF06F0044A052A04C021
:100D5200F6FF05C0F7FF0800F5500009D8A4B4EF6C
:100D620006F0B6EF06F0A6EF06F00650045C046E3D
:100D720007500558056E1200056E8C90A7EC05F021
:100D8200000E956E210EE82EFED700F08C928C9408
:100D92008C900550F00B066E065032EC07F00538C9
:100DA200F00B066E065032EC07F01200056E8C80D6
:100DB200A7EC05F0000E956E210EE82EFED700F08E
:100DC2008C928C948C800550F00B066E065032EC9F
:100DD20007F00538F00B066E065032EC07F01200F1
:100DE200140E086E7A0EE82EFED7082EFCD712ECEF
:100DF20006F0140E086E7A0EE82EFED7082EFCD7E7
:100E020051EC07F04DEC07F0010E09EC07F012006F
:100E1200076E0750D8A410EF07F012EF07F015EF96
:100E220007F00E0EBDEC06F00704D8A41BEF07F086
:100E32001DEF07F020EF07F00C0EBDEC06F01200DC
:100E4200F2921750D8A428EF07F02AEF07F02EEFFE
:100E520007F0010E176E30EF07F0000E176E1C92AE
:100E62001100046E0F0E8C16F00E041604508C1234
:100E72008C84210EE82EFED700F08C94120000EE36
:100E820014F0080EEE6AE806FDE11C901C92000EBA
:100E9200F86E000119EF04F0020EBDEC06F012002C
:080EA200010EBDEC06F0120088
:020000040020DA
:08000000FFFFFFFFFFFFFFFF00
:020000040030CA
:0E0000000008583CFFD181FF0FC00FE00F40F9
:00000001FF
