:020000000FD01F
:100020000F01520ED36ED26AF00E5B6F926E0F0EFE
:10003000896E5D915E6B956AF86A200EF76EF66ABE
:1000400000EE50F00900F5CFEFFFE92A0900F5CFE7
:10005000EFFFE92A0900F5CFEFFFE92A0800F5CF05
:10006000EFFF100EF76E410E505CF66E0800F5CFF4
:1000700005F0410E515CF66E0800F5CF06F0410E1A
:10008000525CF66E0800F5CF07F0410E535CF66E39
:100090000800F5CF08F04EEC00F0CFD705508C6E7D
:1000A000899067EC00F0898006508C6E899267EC2D
:1000B00000F0898207508C6E899467EC00F0898487
:1000C00008508C6E899667EC00F08986120000005B
:1000D0000000000000000000000012000350006E4D
:1000E000004600460044380B006E0350016E01428A
:1000F00001420140070B016E0350026E400E0216D2
:0A010000005001240224046E1200D6
:10100000777C395E79716F74301E763815543F7372
:0A10100067606D783E1C2A766E5B67
:04200000415A554CA0
:020000040030CA
:040000000009583C5F
:02000500D181A7
:060008000FC00FE00F40E5
:00000001FF
