:040000005AEF05F0BE
:1008000000436F6E206665206170726F62617200D6
:0D081000486F6C61204D756E646F21000013
:10081E00F80E956E8C908C828C84F00E00D0E82EA3
:10082E00FDD783CF01F08C94F00E00D0E82EFDD7CB
:10083E008C84F00E00D0E82EFDD78C940150800BE6
:10084E00016E3EEF04F08C84F00E00D0E82EFDD742
:10085E0083CF01F08C94F00E00D0E82EFDD78C845F
:10086E00F00E00D0E82EFDD78C9425EF04F0800E0C
:10087E000118D8B445EF04F047EF04F02AEF04F066
:10088E0012008C908C92300E82EC05F0200E046ECD
:10089E002A0EE82EFED7042EFCD7200E046E2A0E4A
:1008AE00E82EFED7042EFCD7300E82EC05F0F00EAB
:1008BE0000D0E82EFDD7300E82EC05F0200E82EC33
:1008CE0005F0010E28EC05F0280E28EC05F00F0EB1
:1008DE0028EC05F0060E28EC05F0010E28EC05F0CC
:1008EE001200020E046E010ED6EC04F0100E046E11
:1008FE00080E056E0B0E066E99EC04F0000E046EDB
:10090E00020ED6EC04F0010E046E080E056E0E0EED
:10091E00066E99EC04F0000E0EEC05F0210E0EECB6
:10092E0005F01200000E096E000E096EAEEF04F017
:10093E0009500424076E000E0520086E07C0F6FF4E
:10094E0008C0F7FF0800F5500EEC05F0092A065016
:10095E00095CD8A0B5EF04F0B7EF04F09FEF04F0F8
:10096E0012000650080DF350400F28EC05F0000E53
:10097E00076E07500424D96E000E0520DA6EDF5084
:10098E000EEC05F0072A070E0764D0EF04F0D2EF45
:10099E0004F0C0EF04F0800E28EC05F01200056E96
:1009AE000504D8A4DDEF04F0DFEF04F0E5EF04F06A
:1009BE000450800F28EC05F0F2EF04F0020E05183B
:1009CE00D8A4ECEF04F0EEEF04F0F2EF04F00450D4
:1009DE00C00F28EC05F01200260E086EA80EE82EA9
:1009EE00FED7082EFCD700D048EC04F0A2EC05F0A0
:1009FE009EEC05F0010E42EC05F08B840A0E046E9F
:100A0E00000E056E000E066EB8EC04F01200026EBB
:100A1E008C800FEC04F0000E956EF00E00D0E82ED8
:100A2E00FDD78C928C948C800250F00B036E035089
:100A3E0082EC05F00238F00B036E035082EC05F0E9
:100A4E001200026E8C900FEC04F0000E956EF00EFC
:100A5E0000D0E82EFDD78C928C948C900250F00B27
:100A6E00036E035082EC05F00238F00B036E035058
:100A7E0082EC05F01200046E0450D8A449EF05F084
:100A8E004BEF05F04EEF05F00E0E28EC05F00404CA
:100A9E00D8A454EF05F056EF05F059EF05F00C0E03
:100AAE0028EC05F01200340EF66E0B0EF76E000EEB
:100ABE00F86E00EE0AF010EE08F00900F5CFEEFF2A
:100ACE00E550E150FAE1000EF86E080EF76E0001E7
:100ADE0090EF05F0520ED36E000E956E000E0F01C4
:100AEE005E6F93805C91F19E96905F9194945D956C
:100AFE0092805B811200016E0F0E8C16F00E0116A5
:100B0E0001508C128C84F00E00D0E82EFDD78C9400
:100B1E00120071EC05F0F3EC04F078EC04F096EFB3
:100B2E0005F000EF00F002040E111F100E00020E71
:0E0B3E0028EC05F01200010E28EC05F0120064
:020000040020DA
:08000000FFFFFFFFFFFFFFFF00
:020000040030CA
:0E0000000008583CFFD181FF0FC00FE00F40F9
:00000001FF
