:0400000042EF00F0DB
:1000080027829EA40AEF00F00CEF00F038EF00F012
:100018009E9423EF00F0000ECF6E000ECE6E040EFD
:10002800BD6E030E266E40EF00F0BECF24F0BFCFAA
:1000380025F0040E266E050EBD6E40EF00F026502A
:10004800016E026A0250000AD8B42DEF00F040EFAA
:1000580000F00150020AD8B40FEF00F0010AD8B43A
:1000680019EF00F040EF00F09EA03DEF00F03FEFE9
:1000780000F040EF00F09E9027921100D8EF09F0B1
:10080000004D696469656E646F2E2E2E00636F6EF5
:100810002048432D5352303400556C747261736F0D
:100820006E69646F0020636D00000650800B136ECC
:10083000065006241A6E05AE20EF04F022EF04F0F5
:1008400023EF04F01A801A50D8B429EF04F02BEFEC
:1008500004F040EF04F01A28D8A431EF04F033EF8D
:1008600004F03BEF04F0000E036E000E046E000E69
:10087000056E000E066E058E000E066E48EF04F043
:10088000000E036E000E046E000E056E000E066E66
:100890000A50800B131A0A500A241B6E09AE53EF3C
:1008A00004F055EF04F056EF04F01B801B50D8B451
:1008B0005CEF04F05EEF04F073EF04F01B28D8A4A3
:1008C00064EF04F066EF04F06EEF04F0000E076EC4
:1008D000000E086E000E096E000E0A6E098E000EE4
:1008E0000A6E7BEF04F0000E076E000E086E000E1D
:1008F000096E000E0A6E0750081009100A10D8A4DD
:1009000084EF04F086EF04F09EEF04F0000E036E17
:10091000000E046E000E056E000E066E800E0512AF
:100920007F0E06121350061203C003F004C004F039
:1009300005C005F006C006F0E1EF05F01A50D8A496
:10094000A4EF04F0A6EF04F0B0EF04F0000E036E85
:10095000000E046E000E056E000E066EE1EF05F04F
:100960001B501AC00BF00C6A0B5E000E0C5A7F0E67
:100970000B24146E000E0C20156E03C00FF004C083
:1009800010F005C011F006C012F0000E036E000E4C
:10099000046E000E056E000E066E000E166E000E42
:1009A000176E000E186E000E196E000E1B6E11EF02
:1009B00005F01B50D8B4DFEF04F0E1EF04F0F8EFDE
:1009C00004F0D8900F36103611361236D890033610
:1009D00004360536063619AEF0EF04F0F2EF04F0F7
:1009E000F3EF04F00380D890163617361836193610
:1009F00007500F5C08501058095011580A501258EF
:100A0000D8A005EF05F007EF05F010EF05F0198C01
:100A100007500F5E0850105A0950115A0A50125AC6
:100A20001B2A190E1B6417EF05F019EF05F0D9EF1B
:100A300004F00F50101011101210D8B422EF05F06E
:100A400024EF05F03CEF05F016803CEF05F0D89060
:100A5000033604360536063619AE31EF05F033EFAE
:100A600005F034EF05F00380D890163617361836A7
:100A700019361406D8A0150605AE41EF05F043EF70
:100A800005F027EF05F0000E1B6E19AE4AEF05F0DA
:100A90004CEF05F070EF05F0FF0E16140B6EFF0E15
:100AA00017140C6EFF0E18140D6E7F0E19140E6EB7
:100AB0000B500C100D100E10D8B461EF05F063EF61
:100AC00005F067EF05F0010E1B6E70EF05F003A057
:100AD0006CEF05F06EEF05F070EF05F063EF05F0D9
:100AE0001B50D8B476EF05F078EF05F09CEF05F0D9
:100AF000010E0326000E04220522062206A083EF23
:100B000005F085EF05F09CEF05F003C00BF004C085
:100B10000CF005C00DF006C00EF00E340E320D3292
:100B20000C320B320BC003F00CC004F00DC005F00A
:100B30000EC006F0144A152A15BEA7EF05F0155091
:100B400008E11428D8A0A7EF05F0A9EF05F0B4EF4D
:100B500005F0000E156E1468000E036E000E046E94
:100B6000000E056E000E066E15BEC1EF05F01550A5
:100B700006E11404D8B0BFEF05F0C1EF05F0CFEFE8
:100B800005F0000E156E000E146E000E036E000EC2
:100B9000046E000E056E000E066E000E136E14C07D
:100BA0001AF01AA0D6EF05F0D8EF05F0DBEF05F04C
:100BB000058EDCEF05F0059ED8901A30066E92EF98
:100BC00004F012000B6E0B50D8B4E9EF05F0EBEF18
:100BD00005F00DEF06F006BEF2EF05F0F0EF05F0C0
:100BE0000DEF06F003C007F004C008F005C009F0DF
:100BF00006C00AF0071E081E091E0A1E072A000E5C
:100C0000082209220A2207C00DF008C00EF009C010
:100C10000FF00AC010F015EF06F003C00DF004C08D
:100C20000EF005C00FF006C010F0035004100510C0
:100C30000610D8A41EEF06F020EF06F02AEF06F00B
:100C4000000E036E000E046E000E056E000E066EA2
:100C5000BBEF06F0960E0C6E34EF06F00C2AD8901F
:100C600010320F320E320D32000E0D14076E000ED0
:100C70000E14086E000E0F14096EFE0E10140A6E8C
:100C80000750081009100A10D8A449EF06F04BEFDE
:100C900006F02EEF06F059EF06F00C2A010E0D2695
:100CA000000E0E220F221022D89010320F320E3278
:100CB0000D32000E0D14076E000E0E14086E000E9D
:100CC0000F14096EFF0E10140A6E07500810091059
:100CD0000A10D8A46EEF06F070EF06F04DEF06F0A4
:100CE00078EF06F00C06D8900D360E360F3610361B
:100CF0000FBE7DEF06F07FEF06F087EF06F0020EE5
:100D00000C6085EF06F087EF06F072EF06F00CB08E
:100D10008CEF06F08EEF06F08FEF06F00F9ED89066
:100D20000C320CC007F0086A096A0A6A07C00AF0A8
:100D3000096A086A076A07500D1208500E12095016
:100D40000F120A5010120B50D8B4A9EF06F0ABEFF7
:100D500006F0B3EF06F006BEB2EF06F0B0EF06F015
:100D6000B3EF06F0108E0DC003F00EC004F00FC0FC
:100D700005F010C006F01200E5EC09F0B0EC08F048
:100D80006DEF07F08A80030EE82EFED700F08A9000
:100D9000020E266E6DEF07F024C003F025C004F0AC
:100DA000056A066A000EE2EC05F003C020F004C0FC
:100DB00021F005C022F006C023F020C003F021C0BE
:100DC00004F022C005F023C006F0000E076E000EEE
:100DD000086E680E096E420E0A6E15EC04F003C030
:100DE00020F004C021F005C022F006C023F020C08E
:100DF00003F021C004F022C005F023C006F088EC07
:100E000007F0010E0324246E000E0420256E050E4B
:100E1000266E6DEF07F0000E066E010E2CEC09F049
:100E2000010E076E080E086E07EC09F0000E066E44
:100E3000020E2CEC09F024C008F025C009F0000EC9
:100E40000B6E640E0A6E0BEC08F00850300F66EC67
:100E500009F0000E066E640E056E24C003F025C076
:100E600004F07EEC08F003C008F004C009F0000EA6
:100E70000B6E0A0E0A6E0BEC08F00850300F66EC91
:100E800009F0000E066E640E056E24C003F025C046
:100E900004F07EEC08F003C01EF004C01FF01EC07A
:100EA00003F01FC004F0000E066E0A0E056E7EEC05
:100EB00008F00350300F66EC09F0250E076E080E9F
:100EC000086E07EC09F01A0E1C6EF80EE82EFED71D
:100ED0001C2EFCD700D0010E266E26501C6E1D6AFB
:100EE0001D50000AD8B477EF07F06DEF07F01C50E3
:100EF000010AD8B4C2EF06F0050AD8B4CCEF06F068
:100F0000010AD8B40BEF07F06DEF07F042EF00F0E5
:100F1000053406340C6E0C50D8A491EF07F093EF13
:100F200007F09DEF07F0000E036E000E046E000E3A
:100F3000056E000E066E0AEF08F003C007F004C04D
:100F400008F005C009F006C00AF0200EADEF07F06A
:100F5000D8900A32093208320732E82EA8EF07F09B
:100F600007500B6E058EFF0E0316FF0E0416FF0EC4
:100F70000516000E0616960E0C5E0CBEC4EF07F0AA
:100F8000C2EF07F0DAEF07F00C50800A970FD8B0E5
:100F9000CCEF07F0CEEF07F0D0EF07F093EF07F0BC
:100FA000D89006320532043203320C3ED0EF07F0FF
:100FB000F2EF07F01F0E0C64E0EF07F0E2EF07F02E
:100FC000EAEF07F093EF07F0D890033604360536C2
:100FD00006360C060C50D8A4F0EF07F0F2EF07F03D
:100FE000E4EF07F00B50D8B4F8EF07F0FAEF07F092
:100FF00002EF08F0061E051E041E036C000E0422FC
:101000000522062203C003F004C004F005C005F069
:1010100006C006F01200000E0D6E000E0C6E0A5097
:101020000B10D8B416EF08F018EF08F040EF08F0F6
:10103000010E0E6E20EF08F0D8900A360B360E2AFD
:101040000BAE25EF08F027EF08F01CEF08F0D89062
:101050000C360D360A50085C0B500958D8A033EFF7
:1010600008F035EF08F03AEF08F00A50085E0B5030
:10107000095A0C80D8900B320A320E2E27EF08F056
:101080000CC008F00DC009F01200F80E956E8C909F
:101090008C828C84210EE82EFED700F083CF03F0E3
:1010A0008C94210EE82EFED700F08C84210EE82EC1
:1010B000FED700F08C940350800B036E74EF08F0A1
:1010C0008C84210EE82EFED700F083CF03F08C94A1
:1010D000210EE82EFED700F08C84210EE82EFED7DC
:1010E00000F08C945BEF08F0800E0318D8B47BEF0F
:1010F00008F07DEF08F060EF08F0120005500610D0
:10110000D8B485EF08F087EF08F0ABEF08F0010ED8
:10111000076E8FEF08F0D89005360636072A06AE20
:1011200094EF08F096EF08F08BEF08F00550035CA1
:1011300006500458D8A09FEF08F0A1EF08F0A5EFE3
:1011400008F00550035E0650045AD8900632053266
:10115000072E96EF08F003C003F004C004F012005D
:10116000000E066E010E2CEC09F0190E076E080E2B
:10117000086E07EC09F0000E066E020E2CEC09F06A
:101180000D0E076E080E086E07EC09F0100E0E6EBD
:10119000390E0D6E0E0EE82EFED70D2EFCD70E2E3C
:1011A000FAD7050EBD6E630ECD6EF5EC09F0F28E2A
:1011B000F28C9D809D84010E266E12008C908C9284
:1011C000300ECAEC09F0030E066E980EE82EFED71C
:1011D000062EFCD7300ECAEC09F0210EE82EFED701
:1011E00000F0300ECAEC09F0200ECAEC09F0010E36
:1011F00080EC09F0280E80EC09F00F0E80EC09F06D
:10120000060E80EC09F0010E80EC09F0120007C018
:1012100003F008C004F049EC09F003500B6E000E17
:101220000C6E22EF09F00C500724096E000E082006
:101230000A6E09C0F6FF0AC0F7FF0800F55066EC19
:1012400009F00C2A0B500C5CD8A029EF09F02BEF09
:1012500009F013EF09F01200076E0704D8A433EF6A
:1012600009F035EF09F03BEF09F00650800F80ECF4
:1012700009F048EF09F0020E0718D8A442EF09F070
:1012800044EF09F048EF09F00650C00F80EC09F078
:10129000120003C005F004C006F051EF09F0034A44
:1012A000042A03C0F6FF04C0F7FF0800F550000948
:1012B000D8A45DEF09F05FEF09F04FEF09F005509A
:1012C000035C036E06500458046E1200046E8C809A
:1012D00045EC08F0000E956E210EE82EFED700F0CA
:1012E0008C928C948C800450F00B056E0550CAECE7
:1012F00009F00438F00B056E0550CAEC09F0120035
:10130000046E8C9045EC08F0000E956E210EE82ED0
:10131000FED700F08C928C948C900450F00B056EEC
:101320000550CAEC09F00438F00B056E0550CAEC04
:1013300009F01200140E076E7A0EE82EFED7072E63
:10134000FCD7DEEC08F0140E076E7A0EE82EFED7FE
:10135000072EFCD7F5EC09F0F1EC09F0010EB2EC28
:1013600009F01200066E0650D8A4B9EF09F0BBEFE1
:1013700009F0BEEF09F00E0E80EC09F00604D8A4C7
:10138000C4EF09F0C6EF09F0C9EF09F00C0E80ECCC
:1013900009F01200036E0F0E8C16F00E03160350A8
:1013A0008C128C84210EE82EFED700F08C94120053
:1013B00000EE20F0070EEE6AE806FDE12790279286
:1013C000000EF86E0001BCEF06F0520ED36E000E58
:1013D000956E000E0F015E6F93905C919AEC09F090
:1013E0001200020E80EC09F01200010E80EC09F0F0
:0213F0001200E9
:020000040020DA
:08000000FFFFFFFFFFFFFFFF00
:020000040030CA
:0E0000000008583CFFD181FF0FC00FE00F40F9
:00000001FF
